:020000040800F2
:100000001809002029020008BD3C0008AD2800089E
:10001000B93C000881070008314E000800000000CC
:10002000000000000000000000000000294C000853
:10003000510C000800000000513E00082D4C000843
:10004000430200084302000843020008430200087C
:10005000430200084302000843020008430200086C
:1000600043020008550C00085D0C0008430200081C
:10007000430200084302000843020008430200084C
:10008000430200084302000843020008430200083C
:10009000430200084302000843020008650C000800
:1000A000430200084302000843020008430200081C
:1000B000430200084302000843020008430200080C
:1000C00043020008430200084302000843020008FC
:1000D00043020008430200084302000843020008EC
:1000E00043020008430200084302000843020008DC
:1000F00043020008430200084302000843020008CC
:1001000043020008430200084302000843020008BB
:1001100043020008430200084302000843020008AB
:10012000430200084302000885070008450C000848
:10013000430200084302000843020008430200088B
:10014000430200084302000843020008430200087B
:10015000430200084302000843020008430200086B
:10016000430200084302000843020008430200085B
:100170004302000843020008430200080000000098
:10018000430200084302000800F002F800F03CF8C7
:100190000AA090E8000C82448344AAF10107DA45E2
:1001A00001D100F031F8AFF2090EBAE80F0013F0F8
:1001B000010F18BFFB1A43F001031847F06000005D
:1001C00010610000103A24BF78C878C1FAD85207ED
:1001D00024BF30C830C144BF04680C6070470000C1
:1001E0000023002400250026103A28BF78C1FBD840
:1001F000520728BF30C148BF0B6070471FB506F0DB
:1002000016F81FBD10B510BD00F0E4F81146FFF759
:10021000F5FF05F0A1FD00F002F903B4FFF7F2FFCE
:1002200003BC00F005F90000094880470948004771
:10023000FEE7FEE7FEE7FEE7FEE7FEE7FEE7FEE796
:10024000FEE7FEE704480549054A064B70470000F3
:10025000E14C00088901000818030020180900205B
:10026000180500201805002053EA020C00F06980F0
:100270002DE9F04B4FF00006002B1FBFB3FA83F5BA
:1002800003FA05F424FA05F65E4012BF1643B2FAEB
:1002900082F502FA05F4C5F120051EBF22FA05FC1D
:1002A00044EA0C04203556EA044C4FEA144418BFC3
:1002B000641C4FF000084FF00009904271EB030CF2
:1002C00039D3002919BFB1FA81F701FA07F6B0FA5C
:1002D00080F700FA07F6C7F120071EBF20FA07FCD7
:1002E00046EA0C062037B6FBF4FCA7EB0507103FE7
:1002F00007F01F0BCBF120062CFA06F60CFA0BFBCD
:1003000044BFB3460026202FA4BF5E464FF0000B2B
:100310005BEA060C08BF4FF0010B19EB0B0948EB29
:100320000608ABFB027C06FB02CC0BFB03CCC01B1C
:1003300071EB0C01C1E70B46024641464846BDE859
:10034000F08B13B5084318BF4FF0FF300146AFF3F1
:100350000080BDE81C4070474FF0000200B5134616
:1003600094469646203922BFA0E80C50A0E80C50D5
:10037000B1F12001BFF4F7AF090728BFA0E80C5086
:1003800048BF0CC05DF804EB890028BF40F8042B7F
:1003900008BF704748BF20F8022B11F0804F18BFEC
:1003A00000F8012B704770477047704710B500F098
:1003B00009F8006810BD10B5044600F003F80460A9
:1003C00010BD000000487047300000200048704712
:1003D000300000207546FFF7F9FFAE46050069467C
:1003E000534620F00700854618B020B5FFF72AFFD6
:1003F000BDE820404FF000064FF000074FF0000826
:100400004FF0000BAC46ACE8C009ACE8C009ACE862
:10041000C009ACE8C00921F007018D46704710B54E
:100420000446AFF300802046BDE81040FFF7F5BE5C
:1004300001491820ABBEFEE726000200704700000D
:100440000020C4F202001021012200F0E5BE0000ED
:100450000020C4F202001021002200F0DDBE0000E6
:1004600040F20040C4F202000121012200F0D4BE9B
:1004700040F20040C4F202000121002200F0CCBE94
:10048000B0F9003040F2080CC2F2000C00EE103A55
:100490009CED001AB8EEC00A21EE000A81ED000AB8
:1004A000B0F902309CED001A00EE103AB8EEC00A26
:1004B00021EE000A81ED010AB0F9043000EE103A95
:1004C000B8EEC00A21EE000A81ED020AC3798179F3
:1004D000007A1B0243EA0040084400EE100A9FED38
:1004E000041AB8EE400A20EE010A82ED000A7047B5
:1004F00000401C4205F046BA05F06EBAB0F9002083
:1005000000EE102A40F20802C2F2000292ED011A37
:10051000B8EEC00A21EE000A81ED000AB0F90230FF
:1005200092ED011A00EE103AB8EEC00A21EE000A70
:1005300081ED010AB0F9040000EE100AB8EEC00A1D
:1005400021EE000A81ED020A7047000010B504F0A8
:10055000BFFD08B1802402E004F06CFC044605F005
:10056000EDF800281CBF44F0400010BD04F0DCFF93
:10057000204310BD2DE9F04F83B002920E4601904A
:10058000FFF766FF922000F0C5F8922000F0C2F855
:10059000552000F0BFF88046552000F0BBF8834698
:1005A000552000F0B7F88246552000F0B3F8044615
:1005B000552000F0AFF80746552000F0ABF805468F
:1005C000FFF73EFF48EA0B2040F2080900B2C2F2F2
:1005D000000900EE100A99ED001AB8EEC00A4AEAC6
:1005E000042021EE000A00B286ED000A00EE100A97
:1005F00047EA052000B299ED001A02EE100AB8EEA3
:10060000C00AB8EEC22A21EE000A21EE021A86EDD7
:10061000010A86ED021AFFF72BFF802000F07AF81E
:10062000552000F077F80646552000F073F8552065
:1006300000F070F88246552000F06CF80546552011
:1006400000F068F88346552000F064F80446552011
:1006500000F060F80746552000F05CF88046FFF790
:10066000FFFE0F2E25D14AEA052000B200EE100A47
:1006700099ED011AB8EEC00A01994BEA042021EE67
:10068000000A00B281ED000A00EE100A47EA0820D5
:1006900000B299ED011A02EE100AB8EEC00AB8EEE7
:1006A000C22A21EE000A21EE021A81ED010A81ED33
:1006B000021AFFF7CDFEA22000F02CF8A22000F0D5
:1006C00029F8552000F026F80446552000F022F8BD
:1006D0000546FFF7B5FEE00040EA55104FF6000171
:1006E0000022CFF6FF71B2EB902F18BF084300EE47
:1006F000100AB8EEC00AB4EE001A20EE010AB3EEFA
:10070000071A029830EE010A80ED000A03B0BDE836
:10071000F08F000080B582B08DF8070040F22820ED
:100720004FF47A7CC2F200000DF107010DF10602D0
:100730000123CDF800C001F08BFD9DF8060002B04A
:1007400080BD000002784078D20042EA50104FF697
:1007500000020023CFF6FF72B3EB902F18BF1043B7
:1007600000EE100AB8EEC00AB4EE001A20EE010A3C
:10077000B3EE071A30EE010A81ED000A704700005F
:10078000FEE70000B0B540F22820C2F20000C16CC4
:1007900046F2A040C4F202000968A0F1480291426A
:1007A00026D946F29F0350F89C2CC4F202039942CA
:1007B0004FF020036CDD46F23F45C4F20205A9422A
:1007C00000F3808046F2A005C4F20205A94200F0C1
:1007D000AF8046F21045C4F20205A94200F0D58070
:1007E00046F22843C4F20203994200F0CC808BE128
:1007F00046F25802C4F2020202F16003994223D980
:1008000046F29F03D2F8A823C4F2020399424FF0A4
:10081000200340F3938046F23F45C4F20205A9420B
:1008200000F3D68046F2A005C4F20205A94200F00A
:10083000F78046F21045C4F20205A94200F03E815D
:1008400046F2284334E100BF46F29F059142C4F2CC
:1008500002054FD952F854CCA9424FF020044FDC86
:1008600046F23F05C4F20205A94240F3E58046F294
:100870004005C4F20205A94200F0D88046F2700596
:10088000C4F20205A94200F0E68046F28805DBE0EA
:1008900046F23F05C4F20205A94267DD46F2400573
:1008A000C4F20205A94243D046F27005C4F2020523
:1008B000A9426AD046F28803C4F20203994214D0D6
:1008C00022E100BF46F24045C4F20205A9422FD002
:1008D00046F27045C4F20205A94256D046F288435A
:1008E000C4F20203994240F00F814FF400631342B7
:1008F0004ED140E152F858CCA9424FF02004AFDD70
:1009000046F23F45C4F20205A94279DC46F2A00551
:10091000C4F20205A94200F0898046F21045C4F2F3
:100920000205A94200F0978046F228458CE000BFFE
:100930004FF4001313422BD11DE100BF46F23F05D7
:10094000C4F20205A94240F3AB8046F24005C4F26E
:100950000205A94264D046F27005C4F20205A9421C
:1009600000F0AC8046F2880340E000BF46F210057C
:10097000C4F20205A94208D046F22803C4F20203D9
:10098000994240F0C1804FF40063134200F0F380BD
:1009900046F27042C4F2020291420BD046F2884203
:1009A000C4F20202914209D14FF4006240F8942C43
:1009B000F2E000BF202240F8942CEDE04FF00062FE
:1009C000814208BF4FF4001240F8942CE4E000BFCD
:1009D00046F24045C4F20205A94221D046F27045D4
:1009E000C4F20205A94269D046F28843C4F2020368
:1009F000994240F0AB804FF40063134260D1BAE0FB
:100A000046F24045C4F20205A9420FD046F27045B5
:100A1000C4F20205A9421ED046F2884514E000BF88
:100A20004FF4001313424BD1A5E000BF4FF4001464
:100A300004EA0C05A5B99EE046F21005C4F20205D1
:100A4000A94208D046F22805C4F20205A94240F0A6
:100A500087804FF4006404EA0C05002D00F08B80C1
:100A600099422DD8914259D946F27000C4F2020041
:100A7000814200F0818046F28800C4F20200814287
:100A800000F07E8046F2A000C4F2020081420CBF5A
:100A90004FF400104FF0006042F84C0C7CE000BFB7
:100AA00046F21005C4F20205A94207D046F2280317
:100AB000C4F20203994249D14FF4006313425AD061
:100AC00046F21042C4F20202914219D046F2284284
:100AD000C4F2020291420DD046F24042C4F2020238
:100AE00091420CBF4FF400114FF0006140F8981C88
:100AF00052E000BF4FF4006140F8981C4CE000BF8A
:100B0000202140F8981C47E04FF00063814208BF65
:100B10004FF4001313427FF43BAF2CE046F2100079
:100B2000C4F20200814231D046F22800C4F2020031
:100B300081422DD046F24000C4F2020081420CBF37
:100B40004FF400104FF0006024E000BF4FF000634E
:100B5000814208BF4FF400131342B1D10BE000BF34
:100B60004FF00064814208BF4FF4001404EA0C0502
:100B7000002D7FF475AFB0BD202042F84C0C0BE087
:100B80004FF4006042F84C0C06E000BF202001E06A
:100B90004FF4006042F8500C40F2A805C2F2000584
:100BA000287800248007C4F2020429D468788007DA
:100BB00037D4A87880070CD5A878102100F0FD0064
:100BC000A870A878012240F00400A870204600F028
:100BD00023FB04F02BFF2878400758BFB0BD2878CE
:100BE00000F0FB002870287840F00800287043F6D9
:100BF0001040C4F20100016841F001010160B0BD84
:100C00002878012100F0FD0028702878012240F0AA
:100C10000400287004F5806000F0FEFA6878800710
:100C2000C7D56878102100F0FD006870687801224F
:100C300040F004006870204600F0EEFAA8788007C3
:100C4000C7D5B9E740F27410C2F2000000F014B842
:100C500070470000082000F0F5B90000102000F0F7
:100C6000F1B90000202000F0EDB90000EFF3108092
:100C700072B600BFFEE70000F0B581B00446002068
:100C8000009040F22800C2F200000268D4E9166029
:100C900048F2B51337680821C1F64E338140394216
:100CA000A2FB03250CD0226813685B0708D51368E4
:100CB00023F004031360B160616D41F001016165CF
:100CC00001218140394208D022685269120604D5B8
:100CD000B160616D41F002016165042181403942DA
:100CE00008D022681268920704D5B160616D41F0A6
:100CF0000401616510218140394217D020680268E3
:100D0000120713D5B16002680168520308D4C905FF
:100D100008D4016821F008010160216C21B905E0C7
:100D200008033FD4216C09B120468847E16D20209B
:100D300000FA01F23A4241D020680368DB063DD553
:100D4000B26094F835300268052B1BD122F01602F0
:100D50000260426922F080024261226C0AB9A26CF0
:100D60001AB1026822F0080202603F208840B06099
:100D7000012084F83500216D0020002984F834001A
:100D800052D157E00168520310D4C90512D401684A
:100D900021F010010160012084F83500002084F862
:100DA000340007E0A16C0029BED1BFE7080301D4DD
:100DB000616C00E0E16B09B120468847606DC8B303
:100DC000606DC0072ED0052084F835002068A90A80
:100DD000026822F001020260009A01328A42009207
:100DE0001AD80268D20717D0009A01328A420092BC
:100DF00012D80268D2070FD0009A01328A420092BC
:100E00000AD80268D20707D0009A01328A420092BB
:100E100002D80268D207DFD1012084F83500002013
:100E200084F83400E16C29B1204601B0BDE8F040FF
:100E3000084700BF01B0F0BD2DE9F041044600F0C5
:100E4000F1F9002C4ED00546022084F83500002030
:100E5000216884F83400086820F001000860086800
:100E6000C00708D000F0DEF9401B05286CD82168C7
:100E70000868C007F6D1086848F23F02CFF21002B6
:100E8000D4E90135024004F10C0E9EE8C1511A4329
:100E90002A4310433043384340EA0800626A40EA7C
:100EA0000C00042A40EA0E0320D1D4E90A5E206B2C
:100EB0004EEA0302104308604869BEF1000F20F0BB
:100EC000030040EA050040F0040C15D0B8F5005FBF
:100ED00042D0B8F1000F51D1022D52D0012D47D090
:100EE00055B94EE00120BDE8F08100BF0B604869B4
:100EF00020F0070040EA020C6FF00F004AF6AB2228
:100F000050FA81F0CAF6AA22A0FB02231A0946F27F
:100F10007223C0F600039A5C40F2FF335F284FF063
:100F20003F00C1F814C021EA030100FA02F088BFB3
:100F30000431C4E916128860002301220020636591
:100F400084F83520BDE8F081032220230320636567
:100F500084F83520BDE8F081032DCDD8012240234F
:100F60000120DFE805F0030E030500BFE7E700BF3F
:100F7000AEF1C070B0FA80F0400904E0032D04D354
:100F8000BAD1CEF300600028B6D001224023012060
:100F9000636584F83520BDE8F0810000B0B50446F3
:100FA00000F040F9054640F20000C2F2000000786F
:100FB000611C18BF044400BF00F034F9401BA0427C
:100FC000FAD3B0BD082815D020282DD0102838D14C
:100FD00040F2A800C2F20000417841F001014170E6
:100FE000817841F0010181700079002818BF04F078
:100FF0001DBD26E040F2A801C2F20001C87840F011
:101000000100C870C87810F00100C87008BF7047B0
:10101000C87800F0FE00C870C87840F0020201F104
:101020003C00CA7004F06ABE40F2A800C2F20000A0
:10103000017841F0010101700079002818BF04F027
:10104000F5BC704743F61441C4F201010A6802423C
:1010500014BF08607047FFF7B5BF00002DE9F04FDF
:1010600082B000F13E4241F6004502F1FF77C4F242
:10107000020508224FEAB726A84208BF0722072E1A
:1010800038BF4FEAB7224FF0010A002400274FF083
:101090000008009208E000BF023708F10108202F85
:1010A00004F1040400F0B4800E680AFA08F916EAA4
:1010B000090FF1D0D1F804A00AF0030BABF101063F
:1010C000012E17D80322866802FA07FECA6826EAAC
:1010D0000E06BA40324382604268CAF3001522EA23
:1010E000090205FA08F54FEA480C6FEA0E062A4392
:1010F00042600BE00322BA40D643BBF1030FBC466B
:1011000004D1BC464FF0030B22E000BFC2688D68DB
:10111000324005FA0CF52A43BBF1020FC26017D129
:101120006FF0030202EA5802024404F01C030F2588
:10113000D2F820E005FA03FA0D692EEA0A0E05FA44
:1011400003F343EA0E031362D1F804A00AF0030B81
:1011500002680BFA0CF332401A431AF4403F4FF086
:10116000010A026098D0002243F644030192C4F2BF
:1011700002031A6843F6004E42F480421A601A686D
:10118000C4F2010E02F480420192019A28F0030297
:101190004FF6084C7244CFF6FF7C52F80C3004F046
:1011A0000C060F25B540AB43009D05FA06F6334308
:1011B00042F80C30DEF808204B6842EA090643F694
:1011C0000C4CDD0258BF22EA0906CEF80860C4F2D2
:1011D000010CDCF800209D0242EA090658BF22EA11
:1011E0000906CCF80060DEF804209D0342EA0906F7
:1011F00058BF22EA0906CEF80460DEF80020DB03BF
:1012000042EA090658BF22EA0906CEF8006043E721
:1012100002B0BDE8F08F0000002A08BF0904816118
:101220007047000040F21430C2F2000000687047BE
:1012300070B5B8B3044690F83D0028B9002084F892
:101240003C00204600F056FB242084F83D00206836
:10125000016821F001010160016841F40041016071
:10126000016821F40041016000F000FD48F2804176
:10127000C0F21E0140F60013D4F804E088424FF09B
:101280000001C0F23D0348F2A16C4FF0000238BFEC
:1012900001219842C0F2010C38BF0122E64538BF57
:1012A0000A460AB1012070BD4DF68361C4F21B31BC
:1012B000A0FB01122168950C4B684FF4967623F041
:1012C0003F0343EA9243754344F6D3564B60C1F261
:1012D00062060B6AA5FB0656B50923F03F03E645F7
:1012E00038BF950C6A1C1A430A62CA6948F2A066A4
:1012F0004CF6FF73C0F20106B64522EA03020BD892
:1013000001384FEA4E03B0FBF3F001306FF31F30AA
:10131000042898BF04201EE0A368013863B1192394
:101320000EFB03F3B0FBF3F001306FF31F3078B125
:1013300000F5804008E000BF0EEB4E03B0FBF3F079
:1013400001306FF31F3028B100F5004003E000BF0B
:10135000012000E001201043C8610868D4E9072398
:1013600020F0C000104318430860886848F2FF323C
:1013700004F10C0690434CCE18431043A5698860D5
:10138000C86820F0FF0030432843C860086840F078
:101390000100086000202021206484F83D102063B3
:1013A00084F83E0070BD00002DE9F04784B09846F7
:1013B00017460E460446FFF735FF94F83D102029E6
:1013C00023D1054620688169890719D5FFF72AFFCF
:1013D000401B1928F6D900202021206384F83D10F5
:1013E00084F83E00206C04F13C0940F020002064A9
:1013F0000220002189F8001004B0BDE8F08700BF8A
:10140000A14619F83C1F012904D1022004B0BDE80F
:10141000F08700BF012289F800200368DDE90D1A7A
:101420000C9ADB0703D1036843F0010303600368F0
:1014300023F400630360222084F83D00402084F8F8
:101440003E000020206462626185608D3146208507
:101450000020CFF6FF70E06220463A464346CDF8C2
:1014600000A0019501F024FA20B1012004B0BDE8EC
:10147000F08700BF208DA8B102282BD0012835D1DC
:1014800021680A6822F480620A60002203924A6995
:1014900003928A690392039A0A6842F400720A600E
:1014A0002CE000BF0020039020684169039181690E
:1014B00003910399016841F400710160202084F8D0
:1014C0003D00002084F83E00002189F8001004B09F
:1014D000BDE8F08721680A6822F480620A600A6821
:1014E00042F400620A600022039202E000210391AC
:1014F00021684A6903928969039103990AF10106F7
:1015000080B2032818D8022842D0012856D1BAF157
:10151000000F00F0AB802068014651F8142F5206EE
:1015200000F1A8800868C00600F1E280FFF77AFEAB
:10153000401B5045EFD9D0E0BAF1000F10D000BFEA
:101540002068014651F8142F52060ED40868C006D0
:1015500000F1CE80FFF766FE401B5045F0D9BCE09D
:1015600020684169490640F1B1800069616A0870EC
:10157000606A2268411C208D616201382085638D7C
:10158000013B638553695B0740F18080106973E01C
:1015900020684169490747D4002E59D0BAF1000F9D
:1015A00000F09980FFF73EFE401B504500F2958009
:1015B000206841694907F5D536E000BF20684169D8
:1015C00049070FD4002E65D0BAF1000F00F08380D8
:1015D000FFF728FE401B504500F27F8020684169DC
:1015E0004907F5D5016821F4806101600069616AED
:1015F0000870606A218D01300139606221852068A0
:10160000618D01396185416949070DD4002E4FD0A4
:10161000BAF1000F5FD0FFF705FE401B50455CD8C4
:10162000206841694907F6D5016841F400710160FD
:101630000069616A0870606A2268411C6162218DDC
:1016400001392185618D013961851169417014E08D
:1016500041694907E8D4416949075CBF41695FEACC
:101660004171E1D441694907F2D5DDE7206841695C
:1016700049062BD50069616A0870606A218D0130C6
:101680006062481E2085618D0139618501047FF407
:1016900037AF13E741694907A4D4416949075CBFE3
:1016A00041695FEA41719DD441694907F2D599E7E3
:1016B00041694907B8D4416949075CBF41695FEA9C
:1016C0004171B1D441694907F2D5ADE750F8141F13
:1016D000C90601460CD4FFF7A5FD00202021206398
:1016E00084F83D1084F83E00206C40F020000AE0B1
:1016F0006FF01000086000202021206384F83D1066
:1017000084F83E00206C20640120002189F800103C
:1017100004B0BDE8F08700002DE9F04383B099469E
:1017200016460F460446FFF77DFD94F83D1020292C
:101730001CD1054620688169890713D5FFF772FD22
:10174000401B1928F6D900202021206384F83D1081
:1017500084F83E00216C41F02001216484F83C00B3
:1017600004E000BF94F83C10012903D1022003B02B
:10177000BDE8F083012284F83C200368DDE90B1802
:101780000A9ADB0703D1036843F00103036003688F
:1017900023F400630360212084F83D00402084F896
:1017A0003E000020206462626185608D394620859C
:1017B0000020CFF6FF70E062204632464B46CDF85F
:1017C0000080019501F004FA20B1012003B0BDE8CA
:1017D000F08300BF208D002850D0206808F101065A
:1017E000014651F8142F12062CD49EB1B8F1000F07
:1017F0005AD000BF086840055ED4FFF713FD401BB8
:10180000404556D82068014651F8142F1206F1D5EC
:1018100018E000BF0A6852054ED40A68120611D4B7
:101820000A68520548D40A6812060BD40A685205A1
:1018300042D40A68120605D40A6852053CD40A68E4
:101840001206E7D5626A114611F8013B0361238D48
:101850006162591E2185678D013F678547697F0752
:101860000AD50F0408D051780161911C6162991E5C
:101870002185628D013A62850904B1D12046414635
:101880002A4601F0DFFA38BB2068016841F4007194
:101890000160202084F83D00002084F83E0084F898
:1018A0003C0003B0BDE8F0830868400504D4FFF7AE
:1018B000B9FC202004E000BF6FF4806008600420C1
:1018C00000212022216384F83D2084F83E10226C00
:1018D0001043206484F83C10206C04287FF475AF1A
:1018E0002068016841F400710160012003B0BDE887
:1018F000F08300002DE9F04786B0006845F6004708
:10190000C4F20007B84203D006B0BDE8F08700BFBC
:10191000002643F630050196C4F20205286801ACA2
:1019200040F00400286028684FF0120800F004001E
:1019300001900198019628684FF0030940F00100DA
:10194000286028684FF0040A00F001000190019817
:101950004FF40070019007F5D6302146CDE902869C
:10196000CDF81090CDF814A0FFF778FB4FF48070FD
:10197000CDE9010803A880E8400607F5D2302146EA
:10198000FFF76CFB0096286940F400002861286985
:1019900000F400000090009806B0BDE8F087000059
:1019A00040F2000040F21431C2F20000C2F2000125
:1019B00000780A68104408607047000080B543F65C
:1019C0000040C4F20200016841F400710160016846
:1019D00041F480610160016841F48071016003207D
:1019E00000F084F8002000F005F800F027F800204F
:1019F00080BD000070B540F20006C2F2000640F261
:101A000028013278C2F200014FF47A730968B3FBFF
:101A1000F2F20446B1FBF2F1084600F0A5FD0F2CEE
:101A20004FF0010508D838B94FF0FF3021460022A9
:101A3000002500F02FF87460284670BD82B00020A9
:101A400043F640010190C4F202014A6842F4804228
:101A50004A604A6802F480420192019A0090086844
:101A600040F080500860086800F0805000900098B6
:101A700002B07047002848BF704700F01F010122E4
:101A800002FA01F14EF200124009CEF2000242F8D1
:101A90002010704710B54EF60C5CCEF2000CDCF84E
:101AA0000030C3F3022E8EF00704042C28BF042458
:101AB000BEF103034FF0FF3E0EFA04F438BF0023DB
:101AC000A14399400EFA03F39A43114300F00F0229
:101AD000043A624409010C3200F16043B0F1FF3F67
:101AE000C8BF03F56442117010BD00004EF60C51E2
:101AF000CEF200010A684FF6FF031A4060F30A2293
:101B000042F0806040F0FD70086070472DE9F041C0
:101B1000002800F08B8043F60808C4F2020804464F
:101B2000D8F8F8030D4600F00700884207D288F87D
:101B3000F853D8F8F80300F00700A84276D12068DF
:101B4000810717D5410705D5D8F8001041F4E051B9
:101B5000C8F80010010705D5D8F8001041F460411D
:101B6000C8F80010D8F80010A26821F0F001114365
:101B7000C8F80010C0073FD1D8F8F80300F00700FC
:101B8000A84207D988F8F853D8F8F80300F00700FE
:101B9000A8424BD12068410707D5D8F80010E26869
:101BA00021F4E0511143C8F80010000708D5D8F817
:101BB0000000216920F4604040EAC100C8F800003C
:101BC00000F068F8D8F8001046F24822C1F303117B
:101BD000C0F60002515C40F2280220FA01F140F206
:101BE0000400C2F200000068C2F200021160FFF7B8
:101BF00001FF0020BDE8F0816068811E022907D244
:101C000058F8081C89015CBF0120BDE8F08111E093
:101C1000012807D158F8081C89035CBF0120BDE8E2
:101C2000F08107E058F8081C890703D40120BDE8BB
:101C3000F08100BFD8F8001021F003010843C8F874
:101C40000000FFF7EFFA064641F28837D8F80000A7
:101C5000616800F00C00B0EB810F8DD0FFF7E2FA65
:101C6000801BB842F2D90320BDE8F08140F2280081
:101C700043F60801C2F20000C4F2020100680968DC
:101C800046F25822C1F38221C0F60002515CC840DE
:101C90007047000010B543F60404C4F20204606803
:101CA00000F00C0008280BD0042819BF42F20040B5
:101CB000C0F2F40041F60030C0F2B70010BD00BF22
:101CC000206821682368490241F60031C0F2B7015B
:101CD00000F03F02C3F388105CBF42F20041C0F243
:101CE000F401A1FB00010023FEF7BEFA21680222E5
:101CF000C1F3014102EB4101B0FBF1F010BD000066
:101D00002DE9F04182B000286AD00446007843F6FD
:101D10000006C007C4F202060BD0B06800F00C0049
:101D2000042840F0A1803068800302D56068002854
:101D300056D0207880071AD5B06810F00C0F09D063
:101D4000B06800F00C00082840F0A88070684002DD
:101D500000F1A4803068800702D5E06801283FD1F7
:101D60003068216920F0F80040EAC1003060207836
:101D7000000739D4207840074ED4A5695DB3B06818
:101D800000F00C00082840F0BD80012D28D07068BC
:101D9000E16900F480028A4222D1216A00F03F0208
:101DA0008A421DD147F6C071626A0140B1EB821FC1
:101DB00016D1A26A0023CFF6FF7303EBC23200F400
:101DC00040316FF30F0291420AD1E16A00F0706076
:101DD000B0EB016F04D1002002B0BDE8F08100BF7C
:101DE000012002B0BDE8F0816069002840F20000E7
:101DF000C4F2472076D00121C0F8801EFFF712FA06
:101E0000054600BF706F8007B4D4FFF70BFA401B84
:101E10000228F7D9DDE000BF306C10F080580AD1FD
:101E200000200190306C40F080503064306C00F045
:101E300080500190019847F20007C4F2000738680B
:101E4000C00541D4386840F480703860FFF7EAF983
:101E5000054600BF3868C00536D4FFF7E3F9401BDC
:101E60000228F7D9B5E000BFB06800F00C000828E0
:101E700003D1706840023FF556AF6068B0F5803F0F
:101E800007D0B0F5A02F40F08D80306840F480205E
:101E90003060306840F4803030608DE0E0680028C9
:101EA00052D00020C4F2472001210160FFF7BAF9A7
:101EB000054600BF306880073FF552AFFFF7B2F923
:101EC000401B0228F6D984E0A068012805D0052827
:101ED0004ED1306F40F004003067306F40F00100A9
:101EE00030674FE00021C0F8801EFFF79BF90546E0
:101EF000706F80077FF53EAFFFF794F9401B022813
:101F0000F6D966E00027C4F2472700203866FFF7BD
:101F100089F9022D05460BD1306880015ED5FFF7A7
:101F200081F9401B02284FF00300F5D954E700BFA8
:101F3000306880017FF54FAFFFF774F9401B02282E
:101F40004FF00300F4D947E70020C4F247200021F6
:101F50000160FFF767F90546306880077FF507AF36
:101F6000FFF760F9401B02284FF00300F4D933E774
:101F7000316F002821F001013167316F21F0040138
:101F800031674DD0FFF74EF9054641F2883700BF63
:101F9000306F800756D4FFF745F9401BB842F7D998
:101FA00017E000BF3168002821F4803131603168CA
:101FB00021F4802131604FD0FFF734F9054600BF8E
:101FC000306880033FF5B5AEFFF72CF9401B64285D
:101FD000F6D9032002B0BDE8F08100BF04F11C0572
:101FE0002FCD08430021CFF6FF7140EA821001EBAC
:101FF000C3316FF30F0140EA0560084370600120B0
:102000003866FFF70FF90446306880013FF5E3AE0C
:10201000FFF708F9001B02284FF00300F4D9DBE6B4
:10202000FFF700F9054641F2883700BF306F80079F
:1020300008D5FFF7F7F8401BB8424FF00300F5D979
:10204000CAE600BFB8F1000F7FF497AE306C20F005
:102050008050306491E600BFFFF7E4F8054600BF0A
:10206000306880037FF565AEFFF7DCF8401B64281D
:102070004FF00300F4D9AFE670B538B10446406ABA
:1020800030B10020206104F1140007E0012070BD90
:102090006068B0F5827F03D004F11C00002101606C
:1020A0000026A66294F8510020B9204684F85060BA
:1020B00000F03CF8022084F8510094E80F0001F48D
:1020C0008271056802F4044225F040050560114460
:1020D00003F400622369114403F0020263691144AE
:1020E00003F00102A369E569114403F4007211448D
:1020F00005F03802256A114405F08002A56A1143F3
:1021000005F4005211430160626A042101EA13419F
:1021100002F0100211444160C16921F40061C16103
:102120000120666584F85100304670BD2DE9F04FFE
:1021300085B00446006843F20007C4F20107B842C4
:1021400002D005B0BDE8F08F002643F630000096BF
:10215000C4F2020041696D4641F480514161416918
:1021600046F2404801F480510091009900960168C0
:102170004FF0020941F00201016001684FF0030ACB
:1021800001F0020100910099009601684FF0050BE3
:1021900041F0010101600068294600F00100009053
:1021A00000981820009007F55440C4F20208CDE9C9
:1021B0000196CDF80CA0CDF810B0FEF74FFF8020AF
:1021C000CDE9000902A880E8400C07F550402946F7
:1021D000FEF744FF40F21415C2F200054FF4403000
:1021E0004FF0C0674FF48069C5E908062846C5E985
:1021F0000087C5E90266C5E90496C5E90666FEF7EB
:102200001BFE002818BFFEF731FDE564AC6340F209
:10221000741508F11800C2F200054021C5E9000755
:1022200005F1080080E842024FF40030C5E90806D5
:102230002846C5E90566EE61FEF7FEFD002818BFD9
:10224000FEF714FDA564AC6305B0BDE8F08F000097
:102250002DE9F04383B0044690F85000012803D1E3
:10226000022003B0BDE8F08301201E4615460F464C
:1022700084F85000FEF7D6FF94F8511081460129EA
:1022800040F09880002F4FF0010018BF002D00F0A3
:102290009E80002E00F09B8094F8510000210428BD
:1022A0001CBF052084F851006165A563E687A687F9
:1022B0002763E6862068A686216461640168490672
:1022C00003D4016841F0400101606168731EE26857
:1022D000B1FA81F1B3FA83F3DDF8288049095B098B
:1022E000B2F5006F41EA03017AD131B137F8021B30
:1022F000C1602763E08E0138E086012518F10100F6
:1023000031D101E0FEF78EFFE08E18B9E08F002892
:1023100000F0D0802068816889070CD5E18E51B12A
:10232000012D08D1216B002531F8022BC2602163F9
:10233000E18E0139E1868168C907E3D0E18F002988
:10234000E0D0C068A16B012521F8020BA163E08FEA
:102350000138E087D6E700BFFEF764FFA0EB090075
:10236000404580F0FD80E08E18B9E08F002800F035
:10237000A1802068816889070CD5E18E51B1012DBB
:1023800008D1216B002531F8022BC2602163E18E58
:102390000139E1868168C907DED0E18F0029DBD0F1
:1023A000C068A16B012521F8020BA163E08F013801
:1023B000E087D1E76068B0F5827F07D1A068002888
:1023C0004FF0020008BF042901D15BE70220012180
:1023D00084F85110002184F8501003B0BDE8F08358
:1023E00039B139780173206B01302063E08E0138F8
:1023F000E086012518F1010033D101E0FEF712FF5C
:10240000E08E10B9E08F002854D0206881688907D9
:102410000ED5E18E61B1012D0AD1216B002509781D
:102420000173216B206801312163E18E0139E1865E
:102430008168C907E2D0E18F0029DFD0C068A16BB5
:1024400001250870A06B0130A063E08F0138E087A0
:10245000D4E700BFFEF7E6FEA0EB0900404580F0A0
:102460008180E08E08B9E08F20B3206881688907F9
:102470000ED5E18E61B1012D0AD1216B00250978BD
:102480000173216B206801312163E18E0139E186FE
:102490008168C907DED0E18F0029DBD0C068A16B5D
:1024A00001250870A06B0130A063E08F0138E08740
:1024B000D0E700BF40F22800C2F20000006849F6F1
:1024C0008171C1F25E61A0FB0101480D4FF47A7188
:1024D000484302906068B0F5827F0FD1204680218A
:1024E00042464B4602F02EFB60B3606D40F0200088
:1024F000606520206065012069E700BF029808B38D
:102500000298013802902068806800061AD5029867
:10251000C0B102980138029020688068000611D589
:10252000029878B10298013802902068806800060D
:1025300008D5029830B1029801380290206880686E
:102540000006DBD4A06800284FF000007FF43FAF06
:1025500001902168CA68019289680191019936E762
:10256000032034E7032032E7411E0020B0EB116F57
:102570001CBF012070474EF21002CEF200025160E3
:102580004EF62351CEF20001F0230B70072190602C
:1025900011607047002804BF0120704710B5044641
:1025A00090F83D0028B9002084F83C00204600F057
:1025B0001FF8022084F83D002068211D02F09AFBDC
:1025C000012084F8460084F83E0084F83F0084F837
:1025D000400084F8410084F8420084F8430084F805
:1025E000440084F8450084F83D00002010BD000040
:1025F00081B0006844F20041C4F20101884201D078
:1026000001B070470020009043F64400C4F202007D
:10261000016841F400310160006800F4003000906E
:10262000009801B0704700002DE9F04190F83C306F
:10263000012B04BF0220BDE8F0814FEAB202032A59
:1026400000F2FC80DFE802F0023E7EBE036840F24A
:1026500000471A6A43F4806522F001021A621C6A7C
:102660001A46D3F804E052F818CF8E6824F002041A
:10267000C4F20107BD4244EA060405D1CE6824F045
:102680000C0426F0040634430E68BD4207D1D1E99C
:1026900005572EF4407E45EA0E0545EA070E2CF05C
:1026A00073073743C3F804E09F614F6809695F63AC
:1026B0001C629F6947F008079F619F6927F0040724
:1026C0009F61B1E0036840F200481A6A43F48065F4
:1026D00022F010021A621C6A1A46D3F804E052F87B
:1026E00018CF8F6824F02004C4F20108454544EA5D
:1026F000071407D1CF686FF0400624F0C00406EA43
:10270000071634430F68454507D1D1E905562EF425
:10271000406E4EEA850545EA860E2CF4E64646EA0A
:102720000727C3F804E09F614F6809699F631C6233
:102730009F6947F400679F619F6927F480679F61E5
:1027400071E000BF036840F200481A6A43F48065F4
:1027500022F480721A621C6A1A46D3F804E052F816
:102760001CCF8F6824F40074C4F20108454544EA84
:10277000072408D1CF6840F2FF463F0224F44064AA
:1027800027EA060634430F68454507D1D1E90556C7
:102790002EF4405E4EEA051545EA061E2CF073063F
:1027A0003743C3F804E0DF614F680969DF631C62E7
:1027B000DF6947F00807DF61DF6927F00407DF61A1
:1027C00032E000BF036840F200451A6A43F48067B4
:1027D00022F480521A621A46D3F820C05C6852F87C
:1027E0001CEFD1F800808E68C4F20105AF4204D11D
:1027F0004D6924F4804444EA85142CF4005747EAD8
:1028000006372EF4E64646EA08265C60DE614E682E
:1028100009691E641F62DF6947F40067DF61DF69D1
:1028200027F48067DF6109021368194311600021F2
:10283000002280F83C200846BDE8F08101210022FA
:1028400080F83C200846BDE8F0810000002804BF65
:102850000120704710B5044690F83D0028B90020CB
:1028600084F83C00204600F01FF8022084F83D0068
:102870002068211D02F03EFA012084F8460084F809
:102880003E0084F83F0084F8400084F8410084F85A
:10289000420084F8430084F8440084F8450084F83A
:1028A0003D00002010BD000070470000FEE7000062
:1028B0002DE9F04383B004460068994603689046CA
:1028C00043F48062026002680B9D42F480720260F1
:1028D00042690A9ED2070F461DD1711C11D0002EED
:1028E00000F03681FEF79EFC401BB04200F23281C0
:1028F00020684169C907F5D00DE000BF4169C907EB
:1029000009D14169C90706D14169C90704BF4169B5
:102910005FEAC171F2D007F0FE07076141698907DC
:1029200038D44169721C01F4806111D049BB002E7A
:1029300000F03A81FEF776FC401BB04200F236818F
:1029400020684169890725D441694905F2D518E015
:10295000B9B9416989071DD44169490511D4416953
:10296000890717D4416949050BD44169890711D4F6
:102970004169490505D4416989070BD44169490575
:10298000E7D5016841F4007101606FF48061416135
:1029900004200CE100210291014651F8142F02920B
:1029A0004A680292029A0A68120620D4002E00F0A9
:1029B000AB80721C51D10A68520500F1AD800A68E3
:1029C000120614D40A68520500F1A6800A6812069D
:1029D0000DD40A68520500F19F800A68120606D4D9
:1029E0000A68520500F198800A681206E3D5B9F129
:1029F000010F45D04FEA18210161014651F8142F0B
:102A000012063DD4002E00F07F80721C2AD10A6885
:102A1000520500F181800A68120631D40A68520515
:102A20007AD40A6812062BD40A68520574D40A684C
:102A3000120625D40A6852056ED40A681206E6D535
:102A40001EE000BFFEF7EEFB401BB04261D82068DD
:102A5000014651F8142F1206C9D408684005F1D573
:102A60005AE000BF0868400556D4FEF7DBFB401B68
:102A7000B0424ED82068014651F8142F1206F1D505
:102A80005FFA88F10161014651F8142F12061AD439
:102A9000D6B3721C33D10A6852053DD40A681206B7
:102AA00011D40A68520537D40A6812060BD40A6892
:102AB000520531D40A68120605D40A6852052BD48F
:102AC0000A681206E7D50168002241F480710160AE
:102AD00020464FF001113346009500F007FA002818
:102AE00050D02068006844E0FEF79CFB401BB042D9
:102AF0000FD82068014651F8142F1206E3D4086855
:102B00004005F1D508E000BF0868400504D4FEF791
:102B100089FB202004E000BF6FF48060086004207F
:102B200000212022216384F83D2084F83E10226C8D
:102B30001043206484F83C10206C042843D12068A2
:102B4000016841F400710160012003B0BDE8F08329
:102B5000FEF768FB00202021206384F83D1084F8F4
:102B60003E00216C41F020012164216884F83C0082
:102B70000868C00544BF4FF400702064032003B010
:102B8000BDE8F083206847F0010101610221C0F235
:102B90000101204632462B4600F050FA002818BFAB
:102BA000012003B0BDE8F083FEF73CFB20200021AC
:102BB0002022216384F83D2084F83E10226C1043CB
:102BC000206484F83C10012003B0BDE8F0830000CD
:102BD0002DE9F04381B00446006890460268099DE3
:102BE00042F4807202604269089E9946D2070F46FD
:102BF0001DD1711C11D0002E00F0D280FEF712FB07
:102C0000401BB04200F2CE8020684169C907F5D070
:102C10000DE000BF4169C90709D14169C90706D163
:102C20004169C90704BF41695FEAC171F2D007F089
:102C3000FE0101614169890738D44169721C01F4C0
:102C4000806111D049BB002E00F0E880FEF7EAFA5F
:102C5000401BB04200F2E48020684169890725D416
:102C600041694905F2D518E0B9B9416989071DD410
:102C70004169490511D44169890717D4416949055A
:102C80000BD44169890711D44169490505D44169CB
:102C900089070BD441694905E7D5016841F4007102
:102CA00001606FF4806141610420BAE0002100916D
:102CB000014651F8142F00924A680092009A0A685F
:102CC00012061ED4002E00F08580721C4DD10A68B9
:102CD000520500F187800A68120612D40A6852056C
:102CE00000F180800A6812060BD40A68520579D474
:102CF0000A68120605D40A68520573D40A681206D7
:102D0000E5D5B9F1010F43D04FEA18210161014621
:102D100051F8142F12063BD4002E5BD0721C29D11F
:102D20000A6852055ED40A68120631D40A68520550
:102D300058D40A6812062BD40A68520552D40A687D
:102D4000120625D40A6852054CD40A681206E7D543
:102D50001EE000BFFEF766FA401BB0423FD8206875
:102D6000014651F8142F1206CBD408684005F1D55E
:102D700038E000BF0868400534D4FEF753FA401B22
:102D8000B0422CD82068014651F8142F1206F1D514
:102D90005FFA88F10161002001B0BDE8F08300BF57
:102DA000FEF740FA00202021206384F83D1084F8CB
:102DB0003E00216C41F020012164216884F83C0030
:102DC0000868C00544BF4FF400702064032001B0C0
:102DD000BDE8F0830868400504D4FEF723FA2020FC
:102DE00004E000BF6FF4806008600420002120220E
:102DF000216384F83D2084F83E10226C1043206447
:102E000084F83C10206C042817D12068016841F434
:102E100000710160012001B0BDE8F083FEF702FA05
:102E2000202000212022216384F83D2084F83E10D8
:102E3000226C1043206484F83C10012001B0BDE8EE
:102E4000F083000070B50368044653F8140F400780
:102E500037D40E46F1B1701C24D100BF186840056C
:102E600032D4186840072CD4186840052CD4186850
:102E7000400726D41868400526D41868400720D497
:102E80001868400520D4186840074FF0000048BF7C
:102E900070BDE3E71868400516D4FEF7C3F920209B
:102EA00016E000BF154600BF186840050CD4FEF7B9
:102EB000B9F9401BB042F2D8236853F8140F400709
:102EC000F2D5002070BD00BF6FF480601860042050
:102ED00000212022216384F83D2084F83E10226CDA
:102EE00010432064012084F83C1070BD2DE9F041AE
:102EF00005461446DDF8188001F47F002A681E4656
:102F0000B0F5803F8FB241D150693840C01BB0FA54
:102F100080F04009A0427BD1701C2DD0002E7BD0C8
:102F2000FEF780F9A0EB0800B04277D82868406926
:102F30003840C01BB0FA80F04009A042F0D0002019
:102F4000BDE8F08150693840C01BB0FA80F04009FC
:102F5000A0425DD150693840C01BB0FA80F04009F2
:102F6000A04255D150693840C01BB0FA80F04009EA
:102F7000A0424FF000005FD150693840C01BB0FA4A
:102F800080F04009A042DDD042E000BF90693840A7
:102F9000C01BB0FA80F04009A04239D1701C1FD08C
:102FA000D6B300BFFEF73EF9A0EB0800B04235D81B
:102FB000286880693840C01BB0FA80F04009A04200
:102FC000F0D00020BDE8F08190693840C01BB0FA15
:102FD00080F04009A0424FF0000018BFBDE8F0812A
:102FE00090693840C01BB0FA80F04009A0420FD170
:102FF00090693840C01BB0FA80F04009A04207D168
:1030000090693840C01BB0FA80F04009A042DBD084
:103010000020BDE8F08100BFFEF704F90020202168
:10302000286385F83D1085F83E00296C41F02001A9
:10303000296485F83C000120BDE8F081F0B581B03D
:10304000044600681D4643698FB203EA0701B9428E
:1030500002D1002001B0F0BD41691646013201F4F1
:1030600080610FD059BB9EB3FEF7DCF8401BB04225
:1030700030D8206841693940B942EAD041694905F0
:10308000F2D51CE0D9B941693940B942E1D0416972
:10309000490514D441693940B942DAD0416949053A
:1030A0000DD441693940B942D3D04169490506D4AC
:1030B00041693940B942CCD041694905E3D501683D
:1030C00041F4007101606FF480614161042002E00D
:1030D000FEF7A8F8202000212022216384F83D205B
:1030E00084F83E10226C1043206484F83C100120C8
:1030F00001B0F0BDB0B52DED028B40F2A805C2F2D3
:1031000000052878000707D46878400711D4A8780C
:10311000400764D51CE000BF284610F80C1B01F0E6
:10312000F702294601F85C2BFDF7E8F968784007BB
:10313000EDD5687805F14C0100F0FB00687005F1F1
:10314000150005F16802FDF79BF9A878400746D500
:10315000A87805F1580100F0FB00A87005F10900FE
:10316000FDF7F0FAA87995ED160A012818D140F27A
:10317000C824C2F20004DFED4C0A204600F0A0FD96
:1031800094ED080AB5EE400AF1EE10FA03DA9FED6D
:10319000470A00202062BDEEC00A10EE100A19E0B6
:1031A0009FED411AB4EE410AF1EE10FA10DD687994
:1031B0000130C1B2C92968710AD30120A87140F257
:1031C000C82044F20001C2F20000C4F21C51816226
:1031D00041F2873044F23441C4F20101086005F144
:1031E0005C0090EC030A05F13C0090EC033A05F119
:1031F0004C00D0EC031A05F1280000F017FA95ED09
:103200000A1A95ED0B2A95ED0C0A95ED0D3A22EE72
:10321000000A21EE033A22EE022A21EE011A31EED3
:10322000021A33EE000A31EE011ABFEE008A30EEC8
:10323000000A71EE080A02F051FE85ED070A95EDCD
:103240000A0A95ED0B1A95ED0C2A95ED0D3A22EE32
:10325000000A21EE031A30EE410A30EE000A02F0B5
:10326000A7FD85ED080A95ED0A1A95ED0C0A95ED76
:103270000D2A95ED0B3A20EE020A21EE033A22EEDA
:10328000022A21EE011A31EE021A33EE000A31EE63
:10329000011A30EE000A71EE080A02F01FFE85EDF9
:1032A000090ABDEC028BB0BD0000344200000000F2
:1032B000B0B500BFFDF74AF90028FBD102F0B6FC1B
:1032C0000028FBD140F2A804C2F2000404F15C0023
:1032D00004F14C0104F15802FDF74CF940F2C8200A
:1032E00046F27C229FED120ADFED120AC2F20000C4
:1032F000C0F600020021002500F090FD4FF07E5046
:10330000C4E90A0540F22820C2F200001021C16180
:1033100040F21000C2F20000043004F10B01082258
:10332000C4E90C5501F062FB01202071B0BD00BF63
:1033300000A08C450080894580B582B000200190B6
:1033400043F63000C4F202000168002241F480011B
:1033500001600068002100F48000019001983A208B
:10336000FEF798FB3A20FEF785FB3B200021002268
:10337000FEF790FB3B2002B0BDE88040FEF77ABB31
:103380002DE9F04786B0002143F630000591009109
:10339000C4F20200026841F6000442F00202026038
:1033A0000268C4F2020402F002020092009A009144
:1033B0000268402742F0010202600268012502F023
:1033C00001020092009A0091026842F00402026039
:1033D000026802F004020092009A0091026842F032
:1033E00080020260026802F080020092009A00915E
:1033F000026842F040020260026802F0400200925D
:10340000009A00910168012241F0200101600068EA
:10341000402100F02000009000982046FDF7FCFEBF
:10342000A4F5C0563046102101224FF01009FDF7D7
:10343000F3FEA4F5A058404601210122FDF7ECFE61
:10344000CDE9017501AF20463946CDE90355FDF7B9
:1034500005FE082001904FF4041A20463946CDE9B4
:1034600002A5FDF7FBFDCDE901954FF002093046BD
:1034700039460395CDF81090FDF7F0FD3020CDE9E9
:10348000010AA4F5805039460395FDF7E7FD404653
:103490003946CDE90155CDE90359FDF7DFFD092096
:1034A00000210022FEF7F6FA0920FEF7E3FA0A20CF
:1034B00000210022FEF7EEFA0A20FEF7DBFA1720C1
:1034C00000210022FEF7E6FA1720FEF7D3FA06B035
:1034D000BDE8F08780B540F2D41045F60041C2F255
:1034E0000000C4F2000141F6802200234FF4804C1A
:1034F000C0F2060280E80E00C0E9033CC0E90533D3
:10350000C0E90733FDF794FE002808BF80BDBDE881
:103510008040FDF7ABBB0000B0B540F2282043F27D
:103520000001C2F20000C4F201014FF482720023D4
:1035300080E80E0000F10C014FF0020C4FF0010E7C
:103540004FF40074382581E808500A21C0E9064587
:10355000C0E90833C0E90A31FEF78EFD002808BF34
:10356000B0BDBDE8B040FDF781BB0000B0B58CB088
:1035700044F2004540F28020C4F201050021C2F26D
:10358000000041F28732CDE90511CDE90311C0E910
:103590000051C0E9021201618161FEF7FBFF0028C2
:1035A00018BFFDF763FB40F28020C2F20000FFF776
:1035B0004DF9002818BFFDF759FB602040F2802428
:1035C00000900020C2F20004CDE901000490694699
:1035D00020460022FFF728F8002818BFFDF746FB19
:1035E0002068A84202D00CB0B0BD00BF00200790F8
:1035F00043F63000C4F20200016841F0200101608E
:103600000068012100F020000790079840200790F3
:1036100002200890CDE9091003200B9005F55040D9
:1036200007A9FDF71BFD0CB0B0BD0000B0B52DED36
:10363000108B84B0B5EE403AB0EE418AB0EE609A9D
:10364000B0EE40AAF1EE10FA044617D1F5EE403A7A
:10365000F1EE10FA12D1B5EE404AF1EE10FA0DD1AA
:103660002046B0EE4A0AF0EE490AB0EE481A04B01D
:10367000BDEC108BBDE8B04000F0E8B9F5EE401AA3
:1036800045F6DF15F1EE10FAC5F637750AD1B5EE3D
:10369000402AF1EE10FA05D1F5EE402AF1EE10FACB
:1036A00000F04A8122EE020A21EEA11A31EE005A00
:1036B00023EEA30A23EE031A31EE000A24EE041AC5
:1036C00031EE000A10EE100AFEEE006AA5EB600073
:1036D00001EE100A20EE260A20EE010AB7EE086A73
:1036E00020EE010A30EE060A20EE010A20EE03BAAF
:1036F00020EE23CA20EE04EA94ED020A94ED031AA8
:1037000020EE004AB6EE003A21EE01FA8DED024AB3
:1037100033EE444A74EE4F5A94ED004A94ED017A28
:1037200064EE010A67EE003A73EEE07A60EE01FAA9
:1037300067EE019A33EEA01A67EE070A73EE608A0D
:1037400038EECF3A6CEE274ACDED035A6BEE255A90
:1037500024EE00DA2CEE033A2BEE011A64EE07AAEF
:1037600075EEA44A7DEE295A31EE031A3FEEEA3A8D
:103770002EEE250A2EEE033A30EE240A33EE011A1D
:1037800030EE000A31EE011A21EE011A20EE000A95
:1037900030EE011AB1EEC10A22EEA23A33EE053A3A
:1037A00013EE100AA5EB600023EE263A05EE100A90
:1037B00023EE053A23EE053A33EE063A23EE053AB8
:1037C00063EE21CA63EE02DA63EE22EAB4EE400A47
:1037D000F1EE10FA64EE04BA80F1248139EECD2ABC
:1037E0003AEEAF3A2CEE031A2BEE024A34EE011AEF
:1037F0009DED024A9DED036A38EEC44A2EEE045A4E
:1038000035EE011A31EE011A3BEEA65A20EE066A99
:1038100022EE017A35EE0F5A36EE076A20EE277A4D
:1038200063EE010A24EE011A20EE250A37EE207A13
:1038300030EE011A23EE2E0A2DEE854A34EE400AB0
:1038400027EE0E4A6CEE010A30EEC44A34EE000A4E
:1038500025EE2C4A2EEE825A40F2980035EE444A6C
:1038600021EE0B1A2EEE065AC2F2000035EE411A76
:1038700022EE2D2A2CEE833A90ED005A31EE041AF6
:1038800033EE422A26EE0C3A2BEE074A34EE433A48
:10389000B5EE405AF1EE10FA33EE022A32DD90ED29
:1038A000003A9FED684A20EE033A90ED015A23EE6C
:1038B000043A33EE053A80ED013A90ED003A90ED8E
:1038C000025A21EE033A23EE043A33EE053A80ED34
:1038D000023A90ED003A90ED035A22EE033A23EEBD
:1038E000043A33EE053A80ED033A90ED013A33EEB7
:1038F0000AAA90ED023A90ED034A33EE099A34EEAB
:10390000088A03E0002141608160C16040F22C0020
:10391000C2F2000090ED003A23EE000A90ED003A6A
:1039200030EE0AAA23EE010A90ED001A30EE099A51
:1039300021EE020A30EE088A9FED430A94ED014A17
:1039400094ED025A2AEE001A29EE002A94ED036A39
:1039500028EE000A94ED003A22EE057A64EE410A60
:1039600030EEC77A66EE000A37EE607A60EE050A3E
:1039700063EE011A71EEA00A66EE021A70EEE10A19
:1039800060EE041A63EE022A72EEE11A66EE012A74
:1039900022EE042A23EE000A33EE077A74EE200AA0
:1039A00072EEA11A30EE020A25EE011A75EE211A06
:1039B00030EE410A20EEA01A27EE072A36EE000A62
:1039C00032EE011A21EEA12A32EE011A20EE002A6F
:1039D00032EE011A11EE100AA5EB6000BEEE003ABD
:1039E00002EE100A21EE031A21EE021A21EE021A4B
:1039F000B7EE083A31EE031A21EE021A27EE012A39
:103A000020EE813A21EE814A20EE010A84ED002A5F
:103A100084ED013A84ED024A84ED030A04B0BDEC62
:103A2000108BB0BDB0EE410ACDED017ACDED005A5C
:103A300002F0AAFBDDED005ADDED017AFEEE006A30
:103A4000CCE600BF6F12833A6F12033AF5EE401ACC
:103A500045F6DF11F1EE10FAC5F6377110D1B5EE6B
:103A6000402AF1EE10FA0BD1F5EE402AF1EE10FAF1
:103A700006D190ED014A90ED023A90ED032AA9E0BB
:103A800022EE023A21EEA14A34EE033A22EEA24A95
:103A900034EE033A13EE102AA1EB6202BEEE005A96
:103AA00004EE102A23EE053A23EE043A23EE043AFC
:103AB000B7EE086A33EE063A23EE043A23EE217A93
:103AC00063EE021A23EE226AD0ED002A90ED014A3D
:103AD00090ED023A90ED032A63EE223A64EE024A38
:103AE00062EE845A62EEA22A74EEE33A62EE034A70
:103AF00032EE855A62EE022A75EEA44A72EE852AEB
:103B000040F2980224EE865A61EEA25A62EE872AAB
:103B100026EE236AC2F2000236EE626AD2ED002A75
:103B200063EEA11A27EE247AF5EE402A35EEC55A47
:103B3000F1EE10FA37EE617A32DDD2ED001ADFEDE8
:103B40005C2A65EE211AD2ED013A61EEA21A71EEFD
:103B5000A31AC2ED011AD2ED001AD2ED023A66EEB6
:103B6000211A61EEA21A71EEA31AC2ED021AD2ED69
:103B7000001AD2ED033A67EE211A61EEA21A71EE35
:103B8000A31AC2ED031AD2ED011A31EE800AD2ED6A
:103B9000021AD2ED032A71EEA00A32EE811A03E076
:103BA000002353609360D36040F22C02C2F2000203
:103BB000D2ED001A21EE855AD2ED001A35EE000A38
:103BC00021EE865A92ED006A75EE200A26EE075A1B
:103BD00035EE011A9FED375A20EE050A20EE856A70
:103BE00021EE051A90ED005A26EE037A64EE400AA3
:103BF00030EEC77A62EE010A37EE607A61EE030AB0
:103C000065EE001A71EEA00A62EE061A70EEE10A85
:103C100074EE200A61EE041A65EE062A26EE044AC6
:103C200025EE011A72EEE11A62EE002A31EE041A54
:103C300023EE000A35EE077A72EEA11A31EE400A41
:103C400073EE211A32EE000A20EEA01A27EE072AA0
:103C500032EE011A21EEA12A32EE011A20EE002ADC
:103C600032EE011A11EE102AA1EB6201BEEE003A0B
:103C700002EE101A21EE031A21EE021A21EE021AA8
:103C8000B7EE083A31EE031A21EE021A27EE012AA6
:103C900020EE813A21EE814A20EE010A80ED002AD1
:103CA00080ED013A80ED024A80ED030A704700BFC3
:103CB0006F12833A6F12033AFEE70000FEE700003E
:103CC000002857D0017890ED0F1A90ED102A80ED62
:103CD000070A30EEC00A0029C0ED060A80ED0F0A7F
:103CE00080ED101A80ED112A48D0012940F0908013
:103CF00090ED015A90ED026A30EE414A31EE011A20
:103D000090ED037A24EE054A20EE065A30EE410A81
:103D100032EE000AD0E90C1280ED0C0A20EE070A00
:103D200034EE051A90ED082A90ED043A80ED0B0A66
:103D300031EE000A32EE000AB4EE430AF1EE10FA58
:103D400080ED094A80ED0A5AC0E90D1280ED080A9B
:103D5000C2BF80ED083AB0EE430A7047B1EE431A95
:103D6000B4EE410AF1EE10FABCBF80ED081AB0EED5
:103D7000410A70479FED280A704700BF90ED024A44
:103D800090ED0A6A90ED012A90ED053A24EE004A82
:103D900090ED035A34EE064A20EE022AD0E90C12C6
:103DA00030EE410AB4EE434A80ED0C0A20EE050ADB
:103DB000F1EE10FA80ED092A80ED0A4AC0E90D12F1
:103DC00080ED0B0A06DCB1EE433AB4EE434AF1EE65
:103DD00010FA03DAB0EE434A80ED0A3A32EE042AD2
:103DE00090ED041A30EE020AB4EE410AF1EE10FA38
:103DF00080ED080A07DCB1EE411AB4EE410AF1EE9B
:103E000010FAA8BF7047B0EE410A80ED081A70475B
:103E100090ED080A704700BF00000000002818BF9E
:103E2000002A01D1704700BF80B501701168416060
:103E300051688160916880ED040AC160C0ED050A97
:103E400020302821FCF788FABDE880407047000048
:103E5000704700002DE9F04F81B040F21413C2F218
:103E60000003D3F800C08046DCF8003023F00103E3
:103E7000CCF8003040F27413C2F200031B681F68D4
:103E800027F001071F60DCF80070FF073ED0DCF868
:103E9000000020F00100CCF80000DCF80000C007B2
:103EA00034D0DCF8000020F00100CCF80000DCF891
:103EB0000000C0071FBFDCF8000020F00100CCF8B4
:103EC0000000DCF8000018BF5FEAC0701ED0DCF80C
:103ED000000020F00100CCF80000DCF80000C00772
:103EE000D5D113E0186820F0010018601868C007E9
:103EF0001FBF186820F001001860186818BF5FEA3B
:103F0000C0700FD0186820F0010018601868C00752
:103F10001FBF186820F001001860186818BF5FEA1A
:103F2000C070DFD140F22824C2F20004E06C46F2F7
:103F30000C49C4F20209056846F2080E09F14C0B5F
:103F400046F28847C4F2020E5D45C4F2020717D953
:103F5000BD4200F0AD8046F27040C4F202008542DE
:103F600040F0D8802020C9F800001020C9F80000D7
:103F70000820C9F800000420C9F800000120A8E0CA
:103F80000EF1B0008542009152D946F21046C4F2BB
:103F9000020646F2284A46F24044B542C4F2020AFA
:103FA000C4F20204414600F08B82554500F0368190
:103FB000A5420CBF4FF400184FF00068B542CEF890
:103FC000008400F032815545884600F03781A542D3
:103FD0000CBF4FF480104FF08060B542CEF8000463
:103FE00000F03381554500F03781A5420CBF4FF4F6
:103FF00000204FF00070B542CEF8000400F033818D
:10400000554500F03781A5420CBF4FF480204FF09A
:104010008070B542CEF8000400F03381554500F0C1
:104020003381A5420CBF4FF480304FF480002CE167
:104030000EF1500646F2100146F2700AB542C4F283
:104040000201C4F2020A40F2D380554500F04882D2
:1040500046F28800C4F20200854200F0498246F22E
:10406000A000C4F2020085420CBF4FF400104FF0D4
:104070000060CEF80400B54200F25B828D4200F091
:104080003F8246F22800C4F20200854200F04082DE
:1040900046F24000C4F2020085420CBF4FF480108B
:1040A0004FF08060CEF80000B54240F2208359E224
:1040B0004FF40060C9F800004FF48060C9F80000B8
:1040C0004FF40070C9F800004FF48070C9F8000088
:1040D0004020C9F80000A06C06685E4540F2E5800B
:1040E000BE4245D046F27040C4F20200864255D12D
:1040F0002020C9F800001020C9F800000820C9F8E5
:1041000000000420C9F800000120C9F8000000F0F8
:1041100058BC00BF09F194004FF00066854208BF0B
:104120004FF40016C9F800604FF0806608BF4FF4E6
:104130008016C9F800604FF00076854208BF4FF442
:104140000026C9F800604FF0807608BF4FF4802643
:10415000C9F800604FF48006854208BF4FF48036EE
:10416000C9F80060A06C06685E4540F29E80B7E723
:104170004FF40060C9F800004FF48060C9F80000F7
:104180004FF40070C9F800004FF48070C9F80000C7
:104190004020C9F8000000F014BC00BF09F19400F1
:1041A0004FF00067864208BF4FF40017C9F800704F
:1041B0004FF0806708BF4FF48017C9F800704FF0C8
:1041C0000077864208BF4FF40027C9F800704FF00F
:1041D000807708BF4FF48027C9F800704FF480073C
:1041E000864208BF4FF48037C9F8007000F0E9BB81
:1041F0008D4200F0958146F22800C4F2020085420B
:1042000000F0908146F24000C4F2020085420CBFEB
:104210004FF400104FF0006086E100BF4FF40068DB
:10422000B542CEF800847FF4CEAE10208846B54269
:10423000CEF800047FF4D6AE07E000BF4FF48060F4
:10424000B542CEF800047FF4CDAE0820B542CEF8DA
:1042500000047FF4D5AE06E04FF40070B542CEF80E
:1042600000047FF4CDAE0420B542CEF800047FF404
:10427000D5AE06E04FF48070B542CEF800047FF46E
:10428000CDAE012001E000BF4020009946F28847F2
:1042900040F22824C4F20207C2F20004CEF800045F
:1042A000A06C06685E453FF61BAF0EF1B00086427B
:1042B00072D946F21044C4F20204A64200F008810A
:1042C00046F22840C4F20200864200F0BF8046F267
:1042D0004040C4F2020086420CBF4FF400104FF081
:1042E0000060A642CEF8000400F0B78046F22840F5
:1042F000C4F20200864200F0B78046F24040C4F2A9
:10430000020086420CBF4FF480104FF08060A6423E
:10431000CEF8000400F0AF8046F22840C4F202005C
:10432000864200F0AF8046F24040C4F2020086426E
:104330000CBF4FF400204FF00070A642CEF80004EE
:1043400000F0A78046F22840C4F20200864200F046
:10435000A78046F24040C4F2020086420CBF4FF4F0
:1043600080204FF08070A642CEF8000400F09F80BD
:1043700046F22840C4F20200864200F09D8046F2D8
:104380004040C4F2020086420CBF4FF480304FF42C
:104390008000CEF8000414E30EF15004A6423BD98D
:1043A00046F27000C4F20200864200F00F8146F22D
:1043B0008800C4F20200864200F0108146F2A0009C
:1043C000C4F2020086420CBF4FF400104FF00060B0
:1043D000CEF80400A64200F2228146F21000C4F298
:1043E0000200864200F0028146F22800C4F2020078
:1043F000864200F0038146F24000C4F20200864289
:104400000CBF4FF480104FF08060CEF80000A64241
:1044100040F2AD8120E100BF46F21000C4F202007C
:10442000864200F0F38046F22800C4F20200864281
:1044300000F0EE8046F24000C4F2020086420CBF5B
:104440004FF400104FF00060E4E000BF4FF4006054
:10445000A642CEF800047FF449AF1020A642CEF861
:1044600000047FF459AF06E04FF48060A642CEF816
:1044700000047FF451AF0820A642CEF800047FF478
:1044800061AF06E04FF40070A642CEF800047FF45E
:1044900059AF0420A642CEF800047FF469AF06E0CD
:1044A0004FF48070A642CEF800047FF461AF012083
:1044B000CEF8000485E200BF4020CEF8000480E280
:1044C0004FF02008B542CEF800847FF47CADACE616
:1044D0002020A642CEF800047FF408AFBDE700BF5D
:1044E0002020CEF80400B5427FF6C8AD21E000BF21
:1044F0004FF40060CEF80400B5421AD8BEE500BF04
:104500001020CEF80000B54240F2F1802AE000BF52
:104510004FF48060CEF80000B54240F2E88021E020
:10452000202001E04FF40060CEF80000B5427FF695
:10453000A5AD554500F0CC8046F28800C4F20200DB
:10454000854200F0CD8046F2A000C4F20200854210
:104550000CBF4FF480104FF08060CEF80400B542DD
:1045600040F2C580554500F0D58046F28800C4F27F
:104570000200854200F0D48046F2A000C4F202009E
:1045800085420CBF4FF400204FF00070CEF80400BD
:10459000B54200F22A818D4200F0CA8046F228001E
:1045A000C4F20200854200F0CB8046F24000C4F223
:1045B000020085420CBF4FF480204FF08070CEF88F
:1045C0000000B54240F28C8125E100BF2020CEF8EA
:1045D0000400A6427FF601AF21E000BF4FF4006067
:1045E000CEF80400A6421AD8F7E600BF1020CEF895
:1045F0000000A64240F2BB802EE000BF4FF4806076
:10460000CEF80000A64240F2B28025E0202001E072
:104610004FF40060CEF80000A6427FF6DEAE46F210
:104620007000C4F20200864200F0928046F28800D8
:10463000C4F20200864200F0938046F2A000C4F269
:10464000020086420CBF4FF480104FF08060CEF81D
:104650000400A64240F28B8046F27000C4F20200D1
:10466000864200F09B8046F28800C4F20200864237
:1046700000F09A8046F2A000C4F2020086420CBF0D
:104680004FF400204FF00070CEF80400A64200F274
:10469000E88046F21000C4F20200864200F08C80EE
:1046A00046F22800C4F20200864200F08D8046F2F5
:1046B0004000C4F2020086420CBF4FF480204FF04D
:1046C0008070CEF80000A64240F24081E3E000BFD7
:1046D0001020CEF80400B5423FF644AF07E000BF1B
:1046E0004FF48060CEF80400B5423FF63BAF8D42F8
:1046F00072D046F22800C4F2020085426ED046F223
:104700004000C4F2020085420CBF4FF400204FF07D
:10471000007065E00820CEF80400B54265D83AE79D
:104720004FF40070CEF80400B5427FF634AF5CE081
:104730000420CEF80000B54240F2D2806BE000BF0A
:104740004FF48070CEF80000B54240F2C98062E0BC
:104750001020CEF80400A6423FF67EAF07E000BF6F
:104760004FF48060CEF80400A6423FF675AF46F2E3
:104770001000C4F2020086426AD046F22800C4F259
:104780000200864266D046F24000C4F20200864231
:104790000CBF4FF400204FF000705DE00820CEF811
:1047A0000400A6425DD874E74FF40070CEF8040010
:1047B000A6427FF66EAF54E00420CEF80000A64279
:1047C00040F2C48067E000BF4FF48070CEF8000074
:1047D000A64240F2BB805EE0082001E04FF400708A
:1047E000CEF80000B5427FF6D6AE55456CD046F205
:1047F0008800C4F2020085426CD046F2A000C4F2E8
:10480000020085420CBF4FF480204FF08070CEF83C
:104810000400B54264D946F2884740F22824554541
:10482000C4F20207C2F2000476D046F28800C4F255
:1048300002000099854273D046F2A000C4F2020043
:1048400085420CBF4FF480304FF4800069E000BF18
:10485000082001E04FF40070CEF80000A6427FF679
:1048600018AF46F27000C4F20200864262D046F2EF
:104870008800C4F20200864262D046F2A000C4F270
:10488000020086420CBF4FF480204FF08070CEF8BB
:104890000400A6425AD946F27000C4F202008642D1
:1048A0006CD046F28800C4F2020086426AD046F21A
:1048B000A000C4F2020086420CBF4FF480304FF4D7
:1048C0008000CEF804007CE00420CEF80400B5425D
:1048D000A1D805E04FF48070CEF80400B5429AD814
:1048E0008D4253D046F22800C4F20200009946F2ED
:1048F000884740F228248542C4F20207C2F200042D
:1049000050D046F24000C4F2020085420CBF4FF482
:1049100080304FF4800046E00120009901E000BFA4
:104920004020CEF80400A06C06685E453FF6D8AB88
:10493000BBE400BF0420CEF80400A642ABD805E0DB
:104940004FF48070CEF80400A642A4D846F21000BE
:10495000C4F2020086422FD046F22800C4F20200C0
:1049600086422BD046F24000C4F2020086420CBFC1
:104970004FF480304FF4800021E000BF0120CEF8DA
:1049800004001EE04020CEF804001AE0009946F230
:10499000884740F228240120C4F20207C2F2000432
:1049A00001E000BF4020CEF80000A06C06685E4524
:1049B0007FF67BACFFF794BB012000E04020CEF8EF
:1049C0000000CCF80C10C3F80C80CCF804205A601E
:1049D000DCF8000040F00100CCF80000186840F05E
:1049E0000100186001B0BDE8F08F0000B0B540F2E2
:1049F0002823C2F200031B685D6845F002055D6074
:104A00005D6845F001055D601D6845F040051D606D
:104A100040F21413C2F200031B681D6825F0010563
:104A20001D601D68ED0716D01D6825F001051D608D
:104A30001D68ED071FBF1D6825F001051D601D687D
:104A400018BF5FEAC57506D01D6825F001051D6019
:104A50001D68ED07E1D146F20C4CC4F2020C0CF1DA
:104A60004C0446F2080EA342C4F2020E04D94FF4DD
:104A70000015CCF8005013E00EF1B005AB4205D99B
:104A80004FF40015CEF800540AE000BF0EF15005B7
:104A9000AB424FF4001594BFCEF80050CEF804504E
:104AA00043F20C05C4F201059D60D9605A60196893
:104AB00041F01001196040F27411C2F2000109685E
:104AC0000B6823F001030B600B68DB0716D00B6843
:104AD00023F001030B600B68DB071FBF0B6823F09B
:104AE00001030B600B6818BF5FEAC37306D00B6845
:104AF00023F001030B600B68DB07E1D1A14207D96A
:104B00004FF00063CCF800308D60C8604A60B0BDE3
:104B10000EF1B003994207D94FF00063CEF800348C
:104B20008D60C8604A60B0BD0EF1500399424FF0ED
:104B3000006394BFCEF80030CEF804308D60C860BA
:104B40004A60B0BD2DE9F04182B01E4690460D4648
:104B50000446FCF767FB301A00EB0807FCF762FB22
:104B600040F22801C2F200010968C1F3CB31794358
:104B7000019121688A682A40AA4227D1064618F185
:104B800001001FD0FCF74EFB801BB84222D20198D7
:104B900001990028A1F1010101912168896808BFEC
:104BA000074601EA0500A842ECD00FE088682840DB
:104BB000A8420BD188682840A84207D188682840BD
:104BC000A84203D188682840A842EFD0002002B054
:104BD000BDE8F081D4E900014268B1F5827F22F09E
:104BE000E00242600AD1A168B1F5004F02D0B1F5F0
:104BF000806F03D1016821F040010160A16AB1F525
:104C0000005F07D1016821F400510160016841F49F
:104C100000510160012084F85100002084F8500008
:104C2000032002B0BDE8F08170470000FCF7B8BE79
:104C3000B0B592B0002443F640000B94CDE909448E
:104C4000CDE907440594CDE90344CDE9014400943E
:104C5000C4F202000168022541F080510160006841
:104C600000F080500090009847F200000094C4F2D9
:104C70000000016841F480410160006800F4804058
:104C8000009000980120099010200A9008200E90B2
:104C9000A820CDE90F050420119006A80695CDE9BE
:104CA0000C54FDF72DF828B1EFF3108072B600BF59
:104CB000FEE700BF0F20CDE901054FF4A05004909E
:104CC0004FF48050059001A805210394FCF71EFFC6
:104CD00020B1EFF3108072B6FEE700BF12B0B0BD96
:104CE0004EF68850CEF20000016841F47001016078
:104CF0007047000010B540F6FF3E0368C4F2000E96
:104D000040F2004C7045C4F2010C27DCB0F1804F3A
:104D100031D040F20042C4F2000290422BD040F663
:104D20000002C4F20002904225D041F6FF72C4F2A4
:104D30000002904229DC70453CDCB0F1804F5FD02E
:104D400040F20042C4F20002904259D040F6000204
:104D5000C4F20002904253D056E000BF40F6004239
:104D6000C4F20002904206D0604504D00022C4F292
:104D700001029042D9D14A6823F07003134341F6EF
:104D8000FF72C4F200029042D5DD43F6FF72C4F216
:104D90000102904222DC42F20002C4F20002904280
:104DA0002ED00022C4F20102904229D0604527D0C3
:104DB0002AE000BF40F60042C4F2000290421FD039
:104DC00041F60002C4F20002904219D041F60042BE
:104DD000C4F20002904213D016E000BF44F2000279
:104DE000C4F2010290420BD044F60002C4F2010268
:104DF000904205D044F20042C4F20102904203D135
:104E0000CA6823F44073134323F080024B69D1F83E
:104E100000E08C681A430260C46240F48062C0F80B
:104E200028E0624504BF096901630121416110BDA9
:104E3000FEE7000080B582B000208DF80700FBF788
:104E400007FB8020FBF766FC5520FBF763FC552031
:104E5000FBF760FC8DF80700FBF7F2FA9620FBF7F2
:104E60004BFBFBF7F5FA8020FBF754FC5520FBF7D2
:104E700051FC5520FBF74EFC8DF80700FBF7E0FADC
:104E80009620FBF739FBFBF7E3FA7E20FBF742FCA9
:104E9000B620FBF73FFCFBF7D3FA5020FBF72AFBC9
:104EA000FBF7D6FA8020FBF735FC5520FBF732FCE8
:104EB0005520FBF72FFC8DF80700FBF7C1FA962071
:104EC000FBF71AFBFBF7C4FA8020FBF723FC552005
:104ED000FBF720FC5520FBF71DFC8DF80700FBF7C6
:104EE000AFFA9620FBF708FB9DF807001E2847D174
:104EF000FBF7AEFA7D20FBF70DFC0420FBF70AFC64
:104F0000FBF79EFA9620FBF7F7FAFBF7A1FAFD20D4
:104F1000FBF700FC5520FBF7FDFB5520FBF7FAFBE8
:104F20008DF80700FBF78CFA9620FBF7E5FA9DF861
:104F30000700042828D1FBF78BFA7C20FBF7EAFB5B
:104F40000020FBF7E7FBFBF77BFA9620FBF7D4FA90
:104F5000FBF77EFAFC20FBF7DDFB5520FBF7DAFBC5
:104F60005520FBF7D7FB8DF80700FBF769FA962071
:104F7000FBF7C2FA9DF8070090B1012005E000BFE1
:104F8000FF2002B080BD00BF002046F2882100EB68
:104F90004000C0F600010844807802B080BD00BF28
:104FA000FBF756FA4020FBF7B5FBAB20FBF7B2FB53
:104FB000FBF746FA9620FBF79FFAFBF749FAC02069
:104FC000FBF7A8FB5520FBF7A5FB5520FBF7A2FB41
:104FD0008DF80700FBF734FA9620FBF78DFA9DF861
:104FE0000700AB2824D1FBF733FA4120FBF792FBF3
:104FF0000020FBF78FFBFBF723FA9620FBF77CFAE8
:10500000FBF726FAC120FBF785FB5520FBF782FB57
:105010005520FBF77FFB8DF80700FBF711FA962070
:10502000FBF76AFA9DF8070020B10320ADE700BF47
:105030000220AAE7FBF70CFA5320FBF76BFB0820D2
:10504000FBF768FBFBF7FCF99620FBF755FAFBF73B
:10505000FFF9D320FBF75EFB5520FBF75BFB5520E8
:10506000FBF758FB8DF80700FBF7EAF99620FBF7F2
:1050700043FA9DF80700082826D1FBF7E9F95820E4
:10508000FBF748FB0420FBF745FBFBF7D9F996201B
:10509000FBF732FAFBF7DCF9D820FBF73BFB552096
:1050A000FBF738FB5520FBF735FB8DF80700FBF7C6
:1050B000C7F99620FBF720FA9DF80700042805D1D0
:1050C000002002B080BD00BF04205EE705205CE741
:1050D0002DE9F04F87B000208DF81B00FBF7B8F9E1
:1050E0008020FBF717FB5520FBF714FB5520FBF73F
:1050F00011FB8DF81B00FBF7A3F99620FBF7FCF9D9
:10510000FBF7A6F98020FBF705FB5520FBF702FB18
:105110005520FBF7FFFA8DF81B00FBF791F996205D
:10512000FBF7EAF9FBF794F97E20FBF7F3FAB620D8
:10513000FBF7F0FAFBF784F95020FBF7DBF9FBF7FC
:1051400087F98020FBF7E6FA5520FBF7E3FA5520B4
:10515000FBF7E0FA8DF81B00FBF772F99620FBF7DE
:10516000CBF9FBF775F98020FBF7D4FA5520FBF754
:10517000D1FA5520FBF7CEFA8DF81B00FBF760F94A
:105180009620FBF7B9F99DF81B001E2840F0968089
:10519000FBF75EF94020FBF7BDFAAC20FBF7BAFA4B
:1051A000FBF74EF99620FBF7A7F9FBF751F9C02062
:1051B000FBF7B0FA5520FBF7ADFA5520FBF7AAFA3A
:1051C0008DF81B00FBF73CF99620FBF795F99DF84D
:1051D0001B00AC2876D15020FBF78CF9FBF738F98F
:1051E0007D20FBF797FA0420FBF794FAFBF728F9E8
:1051F0009620FBF781F9FBF72BF9FD20FBF78AFAE4
:105200005520FBF787FA5520FBF784FA8DF81B0031
:10521000FBF716F99620FBF76FF99DF81B000428A1
:1052200052D15020FBF766F9FBF712F94120FBF74A
:1052300071FA0320FBF76EFAFBF702F99620FBF7F1
:105240005BF9FBF705F9C120FBF764FA5520FBF782
:1052500061FA5520FBF75EFA8DF81B00FBF7F0F8BA
:105260009620FBF749F99DF81B0003282ED150200A
:10527000FBF740F9FBF7ECF87C20FBF74BFA00203A
:10528000FBF748FAFBF7DCF89620FBF735F9FBF75C
:10529000DFF8FC20FBF73EFA5520FBF73BFA5520E0
:1052A000FBF738FA8DF81B00FBF7CAF89620FBF7DE
:1052B00023F99DF81B00A8B1032008E0FF2007B0E8
:1052C000BDE8F08F002002E0012000E0022046F25D
:1052D000602100EB4000C0F600010844807807B070
:1052E000BDE8F08F5020FBF705F9FBF7B1F86D2012
:1052F000FBF710FA0D20FBF70DFAFBF7A1F896204B
:10530000FBF7FAF8FBF7A4F8ED20FBF703FA5520BA
:10531000FBF700FA5520FBF7FDF98DF81B00FBF7B2
:105320008FF89620FBF7E8F89DF81B000D2840F059
:1053300097805020FBF7DEF8FBF78AF89220FBF706
:10534000E9F99220FBF7E6F95520FBF7E3F98046EF
:105350005520FBF7DFF983465520FBF7DBF90546BF
:105360005520FBF7D7F907465520FBF7D3F904463C
:105370005520FBF7CFF90646FBF762F8FBF768F814
:105380006D20FBF7C7F90920FBF7C4F9FBF758F8C4
:105390009620FBF7B1F8FBF75BF8ED20FBF7BAF9C5
:1053A0005520FBF7B7F95520FBF7B4F98DF81B0032
:1053B000FBF746F89620FBF79FF89DF81B0009289D
:1053C00050D101A8D0C05020CDE90458FBF792F885
:1053D000FBF73EF89220FBF79DF99220FBF79AF934
:1053E0005520FBF797F980465520FBF793F9824645
:1053F0005520FBF78FF905465520FBF78BF98146C1
:105400005520FBF787F904465520FBF783F906463C
:10541000FBF716F8FBF71CF86D20FBF77BF9002073
:10542000FBF778F9FBF70CF89620FBF765F8FBF72C
:105430000FF8ED20FBF76EF95520FBF76BF95520BF
:10544000FBF768F98DF81B00FAF7FAFF9620FBF7D7
:1054500053F89DF81B0038B1042007B0BDE8F08F69
:10546000042034E7052032E7059800942C4640EAF2
:105470000B2548EA0A27FAF7EBFF7E20FBF74AF9EB
:10548000B620FBF747F9FAF7DBFF5020FBF732F8BD
:1054900028B239B2411A40F25550814217DBDDE99A
:1054A000032141EA022144EA092209B212B2891A0F
:1054B00081420CDBDDE9011041EA0020009900B2D5
:1054C00041EA062109B2401AB0F52A7F04DA8020A9
:1054D00007B0BDE8F08F00BFFAF7BAFF8020FBF7F6
:1054E00019F95520FBF716F95520FBF713F98DF83C
:1054F0001B00FAF7A5FF9620FAF7FEFFFAF7A8FFC0
:105500008020FBF707F95520FBF704F95520FBF73E
:1055100001F98DF81B00FAF793FF9620FAF7ECFFDC
:10552000002007B0BDE8F08FB0B5FAF7A1FF8020EA
:10553000FBF7F0F85520FBF7EDF8FAF791FF96200E
:10554000FAF7DAFFFAF794FF8020FBF7E3F855202B
:10555000FBF7E0F8FAF784FF9620FAF7CDFFFAF7A9
:1055600087FF1420FBF7D6F8B620FBF7D3F8FAF73D
:1055700077FF5020FAF7BEFFFAF77AFF8020FBF79B
:10558000C9F85520FBF7C6F8FAF76AFF9620FAF734
:10559000B3FFFAF76DFF8020FBF7BCF85520FBF74F
:1055A000B9F80446FAF75CFF9620FAF7A5FF0F2C2E
:1055B0001CBFFF20B0BDFAF75BFF0F20FBF7AAF876
:1055C00000200025FBF7A6F8FAF74AFF9620FAF725
:1055D00093FFFAF74DFF8F20FBF79CF85520FBF760
:1055E00099F80446FAF73CFF9620FAF785FFE4BBEA
:1055F000FAF73EFF1020FBF78DF88220FBF78AF8C0
:10560000FAF72EFF9620FAF777FFFAF731FF90208E
:10561000FBF780F85520FBF77DF80446FAF720FFEA
:105620009620FAF769FF822C1ED1FAF721FF11208C
:10563000FBF770F80020FBF76DF8FAF711FF9620E2
:10564000FAF75AFFFAF714FF9120FBF763F8552099
:10565000FBF760F80446FAF703FF9620FAF74CFFD1
:1056600064B1022501E000BF012546F29A2105EB55
:105670004500C0F6000108448078B0BDFAF7F8FE96
:105680001520FBF747F88020FBF744F8FAF7E8FE0F
:105690009620FAF731FFFAF7EBFE9520FBF73AF880
:1056A0005520FBF737F80446FAF7DAFE9620FAF7AA
:1056B00023FF802C1ED1FAF7DBFE1620FBF72AF819
:1056C0000020FBF727F8FAF7CBFE9620FAF714FF35
:1056D000FAF7CEFE9620FBF71DF85520FBF71AF8D7
:1056E0000446FAF7BDFE9620FAF706FF24B104251A
:1056F000BBE700BF0325B8E7FAF7BAFE1820FBF7AF
:1057000009F80120FBF706F8FAF7AAFE9620FAF747
:10571000F3FEFAF7ADFE9820FAF7FCFF5520FAF7F2
:10572000F9FF0446FAF79CFE9620FAF7E5FE012CF5
:1057300004BF0020B0BD052597E7000010B5FAF7BB
:1057400097FE8020FAF7E6FF5520FAF7E3FFFAF715
:1057500087FE9620FAF7D0FEFAF78AFE8020FAF745
:10576000D9FF5520FAF7D6FFFAF77AFE9620FAF716
:10577000C3FEFAF77DFE1420FAF7CCFFB620FAF745
:10578000C9FFFAF76DFE5020FAF7B4FEFAF770FE83
:105790008020FAF7BFFF5520FAF7BCFFFAF760FE4A
:1057A0009620FAF7A9FEFAF763FE8020FAF7B2FF17
:1057B0005520FAF7AFFFFAF753FE9620FAF79CFE52
:1057C000FAF756FE3C20FAF7A5FF0120FAF7A2FFF0
:1057D000FAF746FE5020FAF78DFEFAF749FEBC2094
:1057E000FAF798FF5520FAF795FF0446FAF738FEC6
:1057F0009620FAF781FEA00700F19280FAF738FEB2
:10580000BC20FAF787FF5520FAF784FF0446FAF721
:1058100027FE9620FAF770FEA00700F18380FAF7C2
:1058200027FEBC20FAF776FF5520FAF773FF0446EF
:10583000FAF716FE9620FAF75FFEA00774D4FAF77F
:1058400017FEBC20FAF766FF5520FAF763FF0446FF
:10585000FAF706FE9620FAF74FFEA00766D4FAF78D
:1058600007FEBC20FAF756FF5520FAF753FF04460F
:10587000FAF7F6FD9620FAF73FFEA00758D4FAF79C
:10588000F7FDBC20FAF746FF5520FAF743FF044620
:10589000FAF7E6FD9620FAF72FFEA0074AD4FAF7AA
:1058A000E7FDBC20FAF736FF5520FAF733FF044630
:1058B000FAF7D6FD9620FAF71FFEA0073CD4FAF7B8
:1058C000D7FDBC20FAF726FF5520FAF723FF044640
:1058D000FAF7C6FD9620FAF70FFEA0072ED4FAF7C6
:1058E000C7FDBC20FAF716FF5520FAF713FF044650
:1058F000FAF7B6FD9620FAF7FFFDA00720D4FAF7D5
:10590000B7FDBC20FAF706FF5520FAF703FF04465F
:10591000FAF7A6FD9620FAF7EFFD012111E000BF8E
:1059200000210EE000210CE000210AE0002108E047
:10593000002106E0002104E0002102E0002100E057
:105940000021402000EA0410002918BF402010BDAB
:1059500040F22800C2F2000000684DF68361C4F2F4
:105960001B31A0FB011244F6D351C1F26201A0FB2E
:105970000101900C40F29002C2F2000210708809FE
:105980005060704780B54EF2180140F29002CEF29E
:105990000001C2F2000251F804CC5268002302FB5D
:1059A00000FE08680AE000BF03449B1A904298BFBB
:1059B00063447345104628BF80BD00BF0A6890420B
:1059C000F2D10A689042EFD10A689042ECD10A689D
:1059D0009042F3D0E8E7000080B54EF2180140F2A3
:1059E0009002CEF20001C2F2000251F804CC12780B
:1059F000002302FB00FE08680AE000BF03449B1A74
:105A0000904298BF63447345104628BF80BD00BFD5
:105A10000A689042F2D10A689042EFD10A68904237
:105A2000ECD10A689042F3D0E8E7000010B540F2EC
:105A3000A804C2F200042078C00714D040F2282045
:105A4000C2F20000816C09680968C9070BD1C06CFB
:105A500000680068C00706D1607880075CBFA07846
:105A60005FEA80704CD56078C00714D040F22820DF
:105A7000C2F20000816C09680968C9070BD1C06CCB
:105A800000680068C00706D1207880075CBFA07856
:105A90005FEA807052D5A078C00715D040F2282068
:105AA000C2F20000816C09680968C90718BF10BDFF
:105AB000C06C00680068C00706D1207880075CBF12
:105AC00060785FEA807001D510BD00BFA07810211A
:105AD00000F0FE00A070A078002240F00200A0704C
